:10000000130101FE232E8100130401029307050052
:10001000A307F4FE930700100347F4FE2380E700D4
:10002000130000000324C1011301010267800000D6
:10003000130101FE232E1100232C81001304010261
:10004000171100001301010713053005EFF05FFBE6
:1000500013058004EFF0DFFA13051004EFF05FFAE8
:100060001305B004EFF0DFF913054005EFF05FF979
:1000700013059004EFF0DFF81305A000EFF05FF830
:100080001305D000EFF0DFF7232604FE6F00000118
:100090008327C4FE938717002326F4FE0327C4FE9C
:1000A000B78701009387F769E3D4E7FE6FF0DFF9C4
:0400000300000030C9
:00000001FF
